:020000040800F2
:1000000078060020CD010008D5010008D7010008BE
:10001000D9010008DB010008DD0100080000000034
:10002000000000000000000000000000DF010008E8
:10003000E101000800000000E3010008E5010008FC
:10004000E7010008E7010008E7010008E7010008F0
:10005000E7010008E7010008E7010008E7010008E0
:10006000E7010008E7010008E7010008E7010008D0
:10007000E7010008E7010008E7010008E7010008C0
:10008000E7010008E7010008E7010008E7010008B0
:10009000E7010008E7010008E7010008E7010008A0
:1000A000E7010008E7010008E7010008E701000890
:1000B000E7010008E7010008E7010008E701000880
:1000C000E7010008E7010008E7010008E701000870
:1000D000E7010008E7010008E7010008E701000860
:1000E000E7010008E7010008E7010008E701000850
:1000F000E7010008E7010008E7010008E701000840
:10010000E7010008E7010008E7010008E70100082F
:10011000E7010008E70100085D060008E7010008A4
:10012000E7010008E7010008E7010008E70100080F
:1001300000F002F800F03AF80AA090E8000C8244BF
:100140008344AAF10107DA4501D100F02FF8AFF29C
:10015000090EBAE80F0013F0010F18BFFB1A43F0A5
:10016000010318472807000048070000103A24BF81
:1001700078C878C1FAD8520724BF30C830C144BF0C
:1001800004680C607047000000230024002500264E
:10019000103A28BF78C1FBD8520728BF30C148BFEA
:1001A0000B6070471FB51FBD10B510BD00F031F8D2
:1001B0001146FFF7F7FF00F055FB00F04FF803B4CE
:1001C000FFF7F2FF03BC00F057F800000948804732
:1001D00009480047FEE7FEE7FEE7FEE7FEE7FEE729
:1001E000FEE7FEE7FEE7FEE704480549054A064B41
:1001F00070470000FD05000831010008780000206C
:1002000078060020780200207802002070477047AE
:100210007047754600F02CF8AE4605006946534617
:1002200020F00700854618B020B5FFF7DDFFBDE8D8
:1002300020404FF000064FF000074FF000084FF04D
:10024000000B21F00701AC46ACE8C009ACE8C009DE
:10025000ACE8C009ACE8C0098D46704710B504464B
:10026000AFF300802046BDE81040FFF7A8BF0000B4
:10027000004870471800002001491820ABBEFEE777
:10028000260002007047000008B50121042000F09C
:100290001DF910208DF803000001ADF800000220C8
:1002A0008DF802006946044800F02FF84FF4807181
:1002B000014800F0B7F808BD0008014010B5044639
:1002C000204600F0A9FA4FF48071064800F0AAF821
:1002D000204600F0A1FA4FF48071024800F0A0F827
:1002E00010BD00000008014070B50446002504E080
:1002F000C820FFF7E3FF05F5C87504EB4400C0EB29
:10030000C410B5EBC00FF3D370BD2DE9F041024628
:1003100000250026002000230024002791F803C0B8
:100320000CF00F0591F803C00CF0100CBCF1000F9D
:1003300003D091F802C04CEA050591F800C0BCF169
:10034000000F31D0146800202BE04FF0010C0CFAA4
:1003500000F3B1F800C00CEA03069E4220D18300EE
:100360004FF00F0C0CFA03F7BC4305FA03FC4CEA00
:10037000040491F803C0BCF1280F06D14FF0010C22
:100380000CFA00FCC2F814C00AE091F803C0BCF1FA
:10039000480F05D14FF0010C0CFA00FCC2F810C058
:1003A000401C0828D1D31460B1F800C0BCF1FF0F85
:1003B00034DD546800202EE000F1080C4FF00108F5
:1003C00008FA0CF3B1F800C00CEA03069E4221D1F2
:1003D00083004FF00F0C0CFA03F7BC4305FA03FC43
:1003E0004CEA040491F803C0BCF1280F05D100F1D8
:1003F000080C08FA0CF8C2F8148091F803C0BCF19C
:10040000480F07D100F1080C4FF0010808FA0CF86A
:10041000C2F81080401C0828CED35460BDE8F0819B
:10042000416170470161704770B5002100230F22C0
:10043000C47804B3154C246804F4E064C4F5E064A3
:10044000210AC1F10403CA40447804FA03F1847814
:100450001440214309010E4C0678A155047804F09C
:100460001F050124AC4005786D11AD0005F1E025B4
:10047000C5F8004109E0047804F01F050124AC40F0
:10048000044D0678761145F8264070BD0CED00E06D
:1004900000E400E080E100E002490143024A11600B
:1004A000704700000000FA050CED00E029B1064A93
:1004B000D2690243044BDA6104E0034AD269824301
:1004C000014BDA61704700000010024029B1064A72
:1004D00092690243044B9A6104E0034A92698243A1
:1004E000014B9A61704700000010024010B500F007
:1004F00001F810BD0CB50020019000903348006851
:1005000040F480303149086000BF3048006800F492
:10051000003000900198401C0190009818B9019893
:10052000B0F5A06FF1D12948006800F4003010B197
:100530000120009001E0002000900098012843D1A4
:100540002348006840F01000214908600846006810
:1005500020F0030008600846006840F002000860D0
:100560001A4840681949486008464068486008468B
:10057000406840F4806048600846406820F47C1081
:1005800048600846406840F4E81048600846006843
:1005900040F08070086000BF0C48006800F00070F8
:1005A0000028F9D00948406820F003000749486056
:1005B0000846406840F00200486000BF03484068B9
:1005C00000F00C000828F9D10CBD0000001002401A
:1005D00000200240042808D14FF0E021096941F0D1
:1005E00004014FF0E022116107E04FF0E0210969BA
:1005F00021F004014FF0E0221161704710B513485B
:10060000006840F001001149086008464068104940
:1006100008400E494860084600680E4908400B49EA
:1006200008600846006820F480200860084640689A
:1006300020F4FE0048604FF41F008860FFF756FF6B
:100640004FF000600449086010BD00000010024037
:100650000000FFF8FFFFF6FE08ED00E010B50121F5
:10066000054800F04AF830B10121034800F036F89F
:10067000C820FFF739FE10BD001000407FB50446CA
:100680000D4601211020FFF711FF0020ADF80A00F0
:10069000ADF80600ADF80450ADF8084001A90E48C9
:1006A00000F046F8012211460B4800F037F83620DA
:1006B0008DF8000002208DF8010003208DF8020063
:1006C00001208DF803006846FFF7AEFE01210248C5
:1006D00000F007F87FBD000000100040CA4302820E
:1006E000704721B1028842F00102028004E00288D2
:1006F0004FF6FE731A400280704730B50246002064
:1007000000230024158A05EA0103958905EA0104FE
:1007100013B10CB1012000E0002030BD1AB1838973
:100720000B43838102E083898B4383817047000000
:10073000002202881D4B98420ED01D4B98420BD0D0
:10074000B0F1804F08D01B4B984205D01A4B98420D
:1007500002D01A4B984204D14FF68F731A404B883F
:100760001A43174B984207D0164B984204D04FF6C5
:10077000FF431A40CB881A4302808B8883850B88FD
:1007800003850A4B98420BD0094B984208D00E4B78
:10079000984205D00D4B984202D00D4B984201D1A2
:1007A0000B7A03860123838270470000002C0140EE
:1007B000003401400004004000080040000C0040EC
:1007C000001000400014004000400140004401407F
:1007D0000048014010B56FF00400FFF7FBFE0A4827
:1007E00000680A49B0FBF1F0094908700846007832
:1007F00000EB4001C1EBC0104FF6FF7101EAC000F1
:100800000449088010BD00000400002000127A0096
:1008100000000020020000200146114A12784A43DD
:100820004FF0E0235A6100229A611A46126942F0A1
:1008300001021A6100BF4FF0E022106900F00102CE
:100840001AB100F48032002AF5D04FF0E02212698C
:1008500022F001024FF0E0231A6100229A617047F2
:1008600000000020FFF7B6FF4FF4A060FFF714FE72
:10087000FFF70AFDC820FFF737FD41F61F4141F29F
:100880008730FFF7FBFE00BFFEE70000AC08000862
:1008900000000020180000006C010008C4080008D7
:1008A0001800002060060000880100080000000019
:1008B00000A24A040000000000000000010203043E
:0408C0000607080916
:0400000508000131BD
:00000001FF
