:020000040800F2
:10000000200B0020DD010008E5010008E7010008E1
:10001000E9010008EB010008ED0100080000000004
:10002000000000000000000000000000EF010008D8
:10003000F101000800000000F3010008F5010008CC
:10004000F7010008F7010008F7010008F7010008B0
:10005000F7010008F7010008F7010008F7010008A0
:10006000F7010008F7010008F7010008F701000890
:10007000F7010008F7010008F7010008F701000880
:10008000F7010008F7010008F7010008F701000870
:10009000F7010008F7010008F7010008F701000860
:1000A000F7010008F7010008F7010008F701000850
:1000B000F7010008F7010008F7010008F701000840
:1000C000F7010008F7010008F7010008F701000830
:1000D000F7010008450C0008F7010008A50C00080E
:1000E000F7010008F7010008F7010008F701000810
:1000F000F7010008F7010008F7010008F701000800
:10010000F7010008F7010008F7010008F7010008EF
:10011000F7010008F7010008F7010008F7010008DF
:10012000F7010008F7010008F7010008F7010008CF
:1001300000F002F800F042F80AA090E8000C8244B7
:100140008344AAF10107DA4501D100F037F8AFF294
:10015000090EBAE80F0013F0010F18BFFB1A43F0A5
:1001600001031847C4140000E4140000103A24BF2F
:1001700078C878C1FAD8520724BF30C830C144BF0C
:1001800004680C607047000000230024002500264E
:10019000103A28BF78C1FBD8520728BF30C148BFEA
:1001A0000B607047642900F05B80782900F0948030
:1001B000002070471FB51FBD10B510BD00F0A2FA9A
:1001C0001146FFF7F7FF00F019FF00F0C0FA03B483
:1001D000FFF7F2FF03BC00F0B8FE000009488047BB
:1001E00009480047FEE7FEE7FEE7FEE7FEE7FEE719
:1001F000FEE7FEE7FEE7FEE704480549054A064B31
:1002000070470000E50B00083101000820050020C0
:10021000200B00202007002020070020704700004E
:100220000FB4044910B503AA029800F023FA10BCD9
:100230005DF814FB080000200FB41CB5074B06AA9C
:100240007B4469460090059800F0FBF90020694660
:1002500000F00AFA1CBC5DF814FB00002504000045
:100260002DE9F0410646002410687529314616A58F
:1002700010D0AFF30080002802DA404213A507E057
:1002800031688A0701D512A502E0490704D511A5F6
:10029000012401E0AFF3008000210A2206F12407C7
:1002A00009E0B0FBF2FCB0FBF2F302FB1C003030C3
:1002B00078541846491C0028F3D123462A46304674
:1002C000BDE8F04100F05FB9000000002D00000023
:1002D0002B0000002000000070B504460D462146AA
:1002E0001068AFF300802188090502D50F4A7A44CF
:1002F00002E00E4A7A440E32002104F1240305E0A4
:1003000000F00F060009965D5E54491C0028F7D1E5
:1003100020780023000704D5702D02D009B10223F4
:1003200011322046BDE8704000F02DB9C611000022
:100330002DE9F05F894604464FF0000ADFF824B14A
:10034000FB44C0F820A02046E168884700287DD003
:10035000252806D0D4E901219047206A401C20625C
:10036000F1E700255F462046E168884720280646D9
:1003700007DB312E05D2B81910F8200C08B105435F
:10038000F1E7A80701D525F00405C4F81CA0002753
:10039000C4F818A02A2E09D0304600F0CFFD38B39B
:1003A00004EB8708303EC8F8186019E059F8041BC0
:1003B000204604EB87029161E1688847012F0646D9
:1003C00018D1E069002820DA25F020051DE0D8F8D2
:1003D000180000EB800006EB40003038C8F8180029
:1003E0002046E1688847064600F0A8FD0028EED1C7
:1003F000012F0AD02E2E08D12046E16888477F1CA5
:100400000646022F45F02005C4DBA069002803DA68
:10041000404245F00105A061E80701D025F0100534
:10042000A6B1A6F14100192802D8203645F400658E
:100430004A463146204625604D46FFF7B3FE60B17F
:10044000012807D0ED1D25F0070000E007E000F1CE
:10045000080978E705F1040975E730467AE7206A6C
:10046000BDE8F09F9C11000010B5431C02E010F89D
:10047000011B71B18107FAD14FF0013202C88C1A09
:100480008C4314EAC211F9D0C01A0A0603D0C01E68
:1004900010BDC01A10BD0A0401D0801E10BD090293
:1004A000FCD0401E10BD032A40F2308010F0030C37
:1004B00000F0158011F8013BBCF1020F624498BFB7
:1004C00011F801CB00F8013B38BF11F8013BA2F154
:1004D000040298BF00F801CB38BF00F8013B11F0CF
:1004E000030300F0D980083AC0F0088051F8043BBB
:1004F000083A51F804CBA0E80810F5E7121D5CBFDC
:1005000051F8043B40F8043BAFF30080D20724BF0E
:1005100011F8013B11F801CB48BF11F8012B24BFA2
:1005200000F8013B00F801CB48BF00F8012B7047F1
:100530004FF0000200B5134694469646203922BF7C
:10054000A0E80C50A0E80C50B1F12001BFF4F7AFC7
:10055000090728BFA0E80C5048BF0CC05DF804EBA9
:10056000890028BF40F8042B08BF704748BF20F817
:10057000022B11F0804F18BF00F8012B7047704715
:100580007047704770472DE9F0470D4699469246EF
:10059000044600F124080168880604D5E06921F0CA
:1005A0001001216000E00120A84201DD471B00E0AE
:1005B0000027A1697A1902EB0900081AA0612078C6
:1005C000C00602D42046AFF30080002608E0D4E93C
:1005D00001211AF806009047206A401C761C206210
:1005E0004E45F4DB2078C0060AD52046AFF30080E4
:1005F00006E0D4E9012130209047206A401C2062A7
:10060000381EA7F10107F4DC07E0D4E9012118F84E
:1006100005009047206A401C2062281EA5F10105B4
:10062000F3DC2046AFF300802078000602D50220DC
:10063000BDE8F0870120FBE701694A1C02610878E8
:10064000704700B58FB0CDE9013100210591054912
:100650007944CDE9031011466846FFF769FE0FB0F3
:1006600000BD0000E5FFFFFF0A6802F8010B0A6009
:1006700070470000074B70B50D467B44FFF7E1FF64
:100680000446284600F03AF810B14FF0FF3070BD34
:10069000204670BD6309000010B5203AC0F00B8001
:1006A000B1E81850203AA0E81850B1E81850A0E876
:1006B0001850BFF4F5AF5FEA027C24BFB1E81850D0
:1006C000A0E8185044BF18C918C0BDE810405FEA40
:1006D000827C24BF51F8043B40F8043B08BF7047BC
:1006E000D20728BF31F8023B48BF11F8012B28BFC1
:1006F00020F8023B48BF00F8012B7047007B00F058
:1007000080007047754600F02BF8AE46050069463C
:10071000534620F00700854618B020B5FFF76CFD62
:10072000BDE820404FF000064FF000074FF00008F2
:100730004FF0000B21F00701AC46ACE8C009ACE873
:10074000C009ACE8C009ACE8C0098D46704710B5D7
:100750000446AFF300802046BDE81040FFF737BDE8
:1007600000487047C004002000B502460B46104602
:1007700000F033F810B14FF4007000BDB2F8000281
:10078000C0F308001354B2F80002401CA2F80002A3
:10079000B2F80002C0F30800B2F80212C1F3080177
:1007A000884202D1012082F80402B2F80002C0F3AC
:1007B0000800E2E70021A0F80212A0F8001280F879
:1007C000041270470146B1F80002B1F802229042CB
:1007D00001D1012070470020FCE7014691F8040296
:1007E000704710B503460C461846FFF7EBFF10B1F3
:1007F0004FF4007010BD1846FFF7EFFF10B1002056
:1008000083F80402B3F80202C0F30800185C2070F9
:10081000B3F80202401CA3F80202B3F80202C0F3CC
:100820000800E7E72DE9F0410246002500260020F8
:1008300000230024002791F803C00CF00F0591F865
:1008400003C00CF0100CBCF1000F03D091F802C0F3
:100850004CEA050591F800C0BCF1000F31D01468D6
:1008600000202BE04FF0010C0CFA00F3B1F800C0AF
:100870000CEA03069E4220D183004FF00F0C0CFAC5
:1008800003F7BC4305FA03FC4CEA040491F803C0E7
:10089000BCF1280F06D14FF0010C0CFA00FCC2F895
:1008A00014C00AE091F803C0BCF1480F05D14FF025
:1008B000010C0CFA00FCC2F810C0401C0828D1D36F
:1008C0001460B1F800C0BCF1FF0F34DD54680020A3
:1008D0002EE000F1080C4FF0010808FA0CF3B1F813
:1008E00000C00CEA03069E4221D183004FF00F0C9A
:1008F0000CFA03F7BC4305FA03FC4CEA040491F834
:1009000003C0BCF1280F05D100F1080C08FA0CF85F
:10091000C2F8148091F803C0BCF1480F07D100F170
:10092000080C4FF0010808FA0CF8C2F81080401CBF
:100930000828CED35460BDE8F081000070B50021D6
:1009400000230F22C47804B3154C246804F4E06437
:10095000C4F5E064210AC1F10403CA40447804FAF2
:1009600003F184781440214309010E4C0678A15507
:10097000047804F01F050124AC4005786D11AD002A
:1009800005F1E025C5F8004109E0047804F01F05F1
:100990000124AC40044D0678761145F8264070BD20
:1009A0000CED00E000E400E080E100E002490143DA
:1009B000024A1160704700000000FA050CED00E0EB
:1009C00029B1064AD2690243044BDA6104E0034AC2
:1009D000D2698243014BDA61704700000010024087
:1009E00029B1064A92690243044B9A6104E0034A22
:1009F00092698243014B9A617047000000100240E7
:100A000030B500210022002400232D4D6D6805F033
:100A10000C0121B1042905D0082923D105E0294D75
:100A2000056022E0274D05601FE0254D6D6805F447
:100A30007012234D6D6805F48034022505EB924257
:100A40001CB9214D554305600BE01D4D6D6805F443
:100A500000351DB11C4D5543056002E0194D55434D
:100A6000056002E0174D056000BF00BF144D6D68C2
:100A700005F0F0010909154D6B5C0568DD40456026
:100A80000F4D6D6805F4E061090A104D6B5C456817
:100A9000DD4085600A4D6D6805F46051C90A0B4D53
:100AA0006B5C4568DD40C560054D6D6805F44041EF
:100AB000890B074D6B5CC568B5FBF3F5056130BD6F
:100AC0000010024000127A0000093D008C00002056
:100AD0009C00002010B500F001F810BD0CB50020FE
:100AE000019000903348006840F48030314908603C
:100AF00000BF3048006800F4003000900198401CAE
:100B00000190009818B90198B0F5A06FF1D129486B
:100B1000006800F4003010B10120009001E00020D6
:100B200000900098012843D12348006840F010004D
:100B3000214908600846006820F003000860084664
:100B4000006840F0020008601A484068194948608F
:100B50000846406848600846406840F48060486045
:100B60000846406820F47C1048600846406840F41D
:100B7000E81048600846006840F08070086000BFD8
:100B80000C48006800F000700028F9D0094840685F
:100B900020F00300074948600846406840F0020022
:100BA000486000BF0348406800F00C000828F9D1F5
:100BB0000CBD00000010024000200240042808D1B3
:100BC0004FF0E021096941F004014FF0E02211618A
:100BD00007E04FF0E021096921F004014FF0E02225
:100BE0001161704710B51348006840F001001149C9
:100BF000086008464068104908400E4948600846A9
:100C000000680E4908400B4908600846006820F457
:100C1000802008600846406820F4FE0048604FF4D9
:100C20001F008860FFF756FF4FF00060044908601E
:100C300010BD0000001002400000FFF8FFFFF6FEAC
:100C400008ED00E010B540F22551114800F05DF8C4
:100C5000E0B110480078104908700D4800F010F914
:100C60000C490870084601780C48FFF77DFD0A48DA
:100C700000780D2807D1074800780A2803D1002002
:100C80000749087002E001200549087010BD000006
:100C9000003801400D0000200C000020B4000020AE
:100CA0000400002010B540F22551084800F02DF84E
:100CB000012809D1054800F0E3F805490870084605
:100CC00001780448FFF750FD10BD000000480040C7
:100CD0000F000020BA02002021B1828942F40052A4
:100CE000828104E082894DF6FF731A408281704749
:100CF00002460020B1F5007F00D100BF13880B40F1
:100D00000BB1012000E00020704770B502460024BE
:100D100000230025002040F66A16B14200D100BF32
:100D2000C1F3421501F01F03012606FA03F3012D5A
:100D300002D19689334006E0022D02D1168A334053
:100D400001E0968A33400C12012606FA04F4168854
:100D5000344013B10CB1012000E0002070BDF0B5AB
:100D60000346002400260025002040F66A17B942F9
:100D700000D100BF1846C1F3421401F01F0601273D
:100D800007FA06F5012C01D10C3004E0022C01D148
:100D9000103000E014301AB107682F43076002E0FA
:100DA0000768AF430760F0BD2DE9F04786B0054600
:100DB0000E460024A24600BFA1460027B08900B11C
:100DC00000BF2F462C8A4CF6FF700440F088044385
:100DD0002C82AC894EF6F3100440B0883189084368
:100DE000718908430443AC81AC8A4FF6FF4004404C
:100DF000B0890443AC8201A8FFF702FE1F48874276
:100E000002D1DDF810A001E0DDF80CA0A88900F403
:100E1000004040B10AEBCA0000EB0A1031684900FB
:100E2000B0FBF1F807E00AEBCA0000EB0A103168EA
:100E30008900B0FBF1F86420B8FBF0F00401200950
:100E4000642101FB1089A88900F4004040B13220E0
:100E500000EBC900B0FBF1F000F00700044308E02C
:100E6000322000EB09106421B0FBF1F000F00F001C
:100E700004432C8106B0BDE8F08700000038014033
:100E800001468888C0F308007047C1F308028280D9
:100E90007047000010B586B00446012144F20400FA
:100EA000FFF79EFD18208DF817004FF40070ADF885
:100EB000140003208DF8160005A91D48FFF7B2FCA9
:100EC00004208DF817000002ADF8140005A9184899
:100ED000FFF7A8FC25208DF8100002208DF81100E6
:100EE0008DF8120001208DF8130004A8FFF726FDED
:100EF00000940C20ADF80A000020ADF80600ADF813
:100F00000400ADF80800ADF80C0069460948FFF789
:100F10004BFF012240F225510648FFF720FF06480B
:100F2000FFF748FC01210348FFF7D6FE06B010BDCD
:100F30000008014000380140B400002030380A2881
:100F400001D2012070470020704700BF70470000A9
:100F500010B56FF00400FFF731FE0A4800680A4937
:100F6000B0FBF1F0094908700846007800EB400139
:100F7000C1EBC0104FF6FF7101EAC00004490880C0
:100F800010BD0000A000002000127A000000002028
:100F9000020000200146114A12884A434FF0E02324
:100FA0005A6100229A611A46126942F001021A61DE
:100FB00000BF4FF0E022106900F001021AB100F406
:100FC0008032002AF5D04FF0E022126922F00102AF
:100FD0004FF0E0231A6100229A617047020000205E
:100FE00000BF054A128802F04002002AF9D0C2B2BE
:100FF000014B1B1D1A807047003801401FB5FFF7D9
:10100000A7FF4FF4A060FFF7D1FC4FF4E130FFF7EA
:1010100041FF00F0A3F80120FFF7BCFF34A0FFF769
:10102000FFF80122114635A000F0F4F90122114623
:1010300032A000F0EFF90122114630A000F0EAF9E9
:101040003248B0F80222B0F8001231A0FFF7E8F8F9
:1010500041F28831684600F025F9012819D10122B2
:1010600011462DA000F0D6F99DF800202EA101A870
:10107000FFF7E2F80122114601A800F0CBF92B4955
:101080009DF8002051F822000122114600F0C2F91B
:1010900004E00122114626A000F0BCF99DF80010E2
:1010A00027A0FFF7BDF8002000900BE017489DF83F
:1010B0000020815C25A0FFF7B3F89DF80000401CDC
:1010C000C0B200909DF800006428EFDB0F48B0F834
:1010D0000222B0F800120EA0FFF7A2F806E04FF4CB
:1010E0007A70FFF757FF1AA0FFF79AF8F7E70000AA
:1010F00073746172742E2E2E0D0A0000C7EBCBB5EF
:10110000B3F6C6F4B6AFD6B8C1EE0000BA020020FE
:1011100025642C25640D0A00D3EFD2F4CAB6B1F0D1
:10112000B3C9B9A600000000256400001400002027
:10113000D3EFD2F4CAB6B1F0CAA7B0DC0000000009
:101140007265203A25640D0A0000000025782C0005
:1011500072756E6E69672E2E2E0D0A0000B587B06F
:1011600001218804FFF72CFC01210820FFF738FC3F
:1011700018208DF81B0003208DF81A004FF48060B2
:10118000ADF8180006A91E48FFF74CFB04208DF8A7
:101190001B004002ADF8180006A91948FFF742FBF2
:1011A0004FF4E13002900C20ADF812000020ADF8B1
:1011B0001400ADF81000ADF80E00ADF80C002720BB
:1011C0008DF8040003208DF806008DF8050001203D
:1011D0008DF8070001A8FFF7B1FB02A90948FFF746
:1011E000E3FD012240F225510648FFF7B8FD012139
:1011F0000448FFF771FD0448FFF7DCFA07B000BDB3
:10120000000C014000480040BA02002070B50446BE
:101210000D460BE000BF80210748FFF769FD01285C
:10122000F9D121780448FFF730FE641C281EA5F18F
:1012300001018DB2EED170BD0048004038B50446C2
:101240000D4615E00120FFF7A5FE0F48FFF7BAFA9B
:1012500070B969460C48FFF7C4FA9DF80000844253
:1012600006D19DF8001009A0FEF7DAFF012038BD75
:10127000281EA5F101018DB2E4D107A0FEF7D0FF31
:101280004FF0FF30F3E70000BA020020726573757B
:101290006C743D25780D0A00776169742E2E2E0D31
:1012A0000A000000FEB506460D460124012730A0C5
:1012B000FEF7B6FF102000F071F8012800D00027DB
:1012C00013E00120FFF766FE69462B48FFF789FA15
:1012D000B0F5007F09D09DF80000FC2805D19DF8ED
:1012E000001026A0FEF79CFF03E0281EA5F10105D3
:1012F000E7D100BF0EE00DEB04011F48FFF771FAC4
:10130000B0F5007F04D01DF804101EA0FEF788FF82
:10131000601CC4B20A2CEEDBD5B19DF80000FC289D
:1013200016D19DF8030001280CD0022804D0032810
:1013300004D004280BD103E0022708E0032706E0CD
:10134000042704E001279DF80400307000BF00BFAF
:101350000DA0FEF765FF1F2000F020F8012804D043
:10136000002739460AA0FEF75BFF3846FEBD0000A5
:1013700073746172742E2E00BA02002025780D0A53
:10138000000000002578200073746F702E2E00007E
:101390006572723A25640D0A000000007CB50546AE
:1013A0000024FD222146641C0DF801200022214664
:1013B000641C0DF8012001222146641C0DF8012057
:1013C0002146641C0DF8015011480078A8B940F678
:1013D000B8314120FFF732FF012812D140F6B83171
:1013E0004F20FFF72BFF01280BD121466846FFF75E
:1013F0000DFF01200649087003E021466846FFF70B
:1014000005FF40F6B8314120FFF718FF7CBD000012
:1014100010000020F0B599B005460E46174664212D
:101420006846FFF785F82846FFF71EF80446FD20BA
:101430008DF80000A01C000A8DF80100A01CC0B2AD
:101440008DF8020001208DF803008DF8046022461B
:1014500029460DF10500FFF726F8012F1BD115488D
:101460000078C0B940F6B8314120FFF7E7FE012807
:101470000FD140F6B8314F20FFF7E0FE012805D12B
:10148000601D81B26846FFF7C1FE09E0012019B076
:10149000F0BD0120FBE7601D81B26846FFF7B6FE94
:1014A00004480078012802D1002002490870002079
:1014B000EDE700001000002030313233343536378C
:1014C0003839414243444546403058003031323388
:1014D0003435363738396162636465664030780088
:1014E00004000008000000000000000200010000ED
:1014F00010000000BDF4BCB1D4A4BEAFD0C5CFA2D3
:1015000000000000B6C1D4A4BEAFD0C5CFA2000079
:10151000B6C1D0C5CFA20000D5FDD4DAD0DDCFA2B0
:1015200000000000D4DDCDA300000000B4F2BFAA8B
:10153000B9E3B2A500000000B9D8B5F4B9E3B2A58B
:1015400000000000CED2C8A500000000CED2D4DA40
:10155000D0DEB3B500000000CED2D4DAB3D4B7B930
:1015600000000000CDA3D6B900000000C8B7B6A89F
:10157000BFAACABC00000000BFAACABCB6C1000016
:10158000BCCCD0F8B6C10000BDF1CCECBCB8BAC53B
:1015900000000000B6C1B6CCD0C50000CED2D4DA6F
:1015A000BCD3D3CD00000000D4D9CCFDD2BBB4CE87
:1015B00000000000B4F2BFAAD2F4C0D600000000C0
:1015C000B9D8B5F4D2F4C0D600000000B2BBCDAC9F
:1015D000D2E20000CDACD2E200000000CFD6D4DAD7
:1015E000BCB8B5E300000000D0A1C9F9B5E3000024
:1015F000B4F3C9F9B5E30000D4D9B6C1D2BBB1E99F
:1016000000000000D5E2CAC7C4C4B6F9000000005B
:10161000C3F7CCECCCECC6F8D4F5D1F9000000004F
:10162000C8A1CFFB00000000481600080000002001
:10163000B40000006C010008FC160008B400002093
:101640006C0A000088010008000000000000000093
:101650000000000000000000010000005815000814
:101660004C1500089C15000818150008D415000832
:10167000CC15000844150008DC1500088815000882
:101680001015000878150008041600082C1500082D
:1016900038150008B4150008C0150008A815000882
:1016A000F8150008F0150008E81500089415000862
:1016B0000415000810160008F4140008701500083E
:1016C0006415000824150008801500086C15000832
:1016D00020160008000000000102030401020304B8
:1016E000060708090204060800A24A0400000000D8
:0C16F000000000000102030406070809C6
:0400000508000131BD
:00000001FF
