:020000040800F2
:10000000681400200D0200081502000817020008FD
:10001000190200081B0200081D0200080000000071
:100020000000000000000000000000001F020008A7
:100030002102000800000000230200082502000839
:1000400027020008270200082702000827020008EC
:1000500027020008270200082702000827020008DC
:1000600027020008270200082702000827020008CC
:1000700027020008270200082702000827020008BC
:1000800027020008270200082702000827020008AC
:10009000270200082702000827020008270200089C
:1000A000270200082702000827020008270200088C
:1000B000270200082702000827020008270200087C
:1000C000270200082702000827020008270200086C
:1000D000270200082702000827020008270200085C
:1000E000270200082702000827020008270200084C
:1000F000270200082702000827020008270200083C
:10010000270200082702000827020008270200082B
:10011000270200082702000827020008270200081B
:10012000270200082702000827020008270200080B
:1001300000F002F800F05AF80AA090E8000C82449F
:100140008344AAF10107DA4501D100F04FF8AFF27C
:10015000090EBAE80F0013F0010F18BFFB1A43F0A5
:1001600001031847F4090000140A00000A444FF084
:10017000000C10F8013B13F0070408BF10F8014B06
:100180001D1108BF10F8015B641E05D010F8016B4B
:10019000641E01F8016BF9D113F0080F1EBF10F8AF
:1001A000014BAD1C0C1B09D16D1E58BF01F801CBD2
:1001B000FAD505E014F8016B01F8016B6D1EF9D555
:1001C0009142D6D37047000000230024002500266A
:1001D000103A28BF78C1FBD8520728BF30C148BFAA
:1001E0000B6070471FB51FBD10B510BD00F031F892
:1001F0001146FFF7F7FF00F055FC00F04FF803B48D
:10020000FFF7F2FF03BC00F057F8000009488047F1
:1002100009480047FEE7FEE7FEE7FEE7FEE7FEE7E8
:10022000FEE7FEE7FEE7FEE704480549054A064B00
:10023000704700004105000831010008680E0020E9
:100240006814002068100020681000207047704774
:100250007047754600F02CF8AE46050069465346D7
:1002600020F00700854618B020B5FFF7DDFFBDE898
:1002700020404FF000064FF000074FF000084FF00D
:10028000000B21F00701AC46ACE8C009ACE8C0099E
:10029000ACE8C009ACE8C0098D46704710B504460B
:1002A000AFF300802046BDE81040FFF7A8BF000074
:1002B00000487047080E002001491820ABBEFEE739
:1002C0002600020070472DE9F04102460025002675
:1002D000002000230024002791F803C00CF00F0534
:1002E00091F803C00CF0100CBCF1000F03D091F892
:1002F00002C04CEA050591F800C0BCF1000F31D0F6
:10030000146800202BE04FF0010C0CFA00F3B1F858
:1003100000C00CEA03069E4220D183004FF00F0C70
:100320000CFA03F7BC4305FA03FC4CEA040491F809
:1003300003C0BCF1280F06D14FF0010C0CFA00FCF1
:10034000C2F814C00AE091F803C0BCF1480F05D10F
:100350004FF0010C0CFA00FCC2F810C0401C082839
:10036000D1D31460B1F800C0BCF1FF0F34DD546884
:1003700000202EE000F1080C4FF0010808FA0CF301
:10038000B1F800C00CEA03069E4221D183004FF071
:100390000F0C0CFA03F7BC4305FA03FC4CEA040407
:1003A00091F803C0BCF1280F05D100F1080C08FA40
:1003B0000CF8C2F8148091F803C0BCF1480F07D1C3
:1003C00000F1080C4FF0010808FA0CF8C2F8108090
:1003D000401C0828CED35460BDE8F08101468868EF
:1003E00080B270474161704701617047C1607047DA
:1003F00038B505460C4610208DF8030003208DF813
:100400000200ADF8004069462846FFF75CFF38BDA2
:1004100029B1064A92690243044B9A6104E0034AF7
:1004200092698243014B9A617047000000100240BC
:1004300010B500F001F810BD0CB50020019000903F
:100440003348006840F480303149086000BF3048CC
:10045000006800F4003000900198401C0190009862
:1004600018B90198B0F5A06FF1D12948006800F4DF
:10047000003010B10120009001E0002000900098B1
:10048000012843D12348006840F01000214908604A
:100490000846006820F0030008600846006840F045
:1004A000020008601A4840681949486008464068D8
:1004B00048600846406840F48060486008464068EC
:1004C00020F47C1048600846406840F4E81048601A
:1004D0000846006840F08070086000BF0C48006863
:1004E00000F000700028F9D00948406820F00300AF
:1004F000074948600846406840F00200486000BF75
:100500000348406800F00C000828F9D10CBD000039
:100510000010024000200240042808D14FF0E021E2
:10052000096941F004014FF0E022116107E04FF04A
:10053000E021096921F004014FF0E02211617047C8
:1005400010B51348006840F00100114908600846E2
:100550004068104908400E494860084600680E4946
:1005600008400B4908600846006820F480200860B5
:100570000846406820F4FE0048604FF41F00886081
:10058000FFF756FF4FF000600449086010BD0000FF
:10059000001002400000FFF8FFFFF6FE08ED00E04B
:1005A00010B56FF00400FFF7B7FF0A4800680A496A
:1005B000B0FBF1F0094908700846007800EB4001F3
:1005C000C1EBC0104FF6FF7101EAC000044908807A
:1005D00010BD0000F40D002000127A000000002081
:1005E000020000200146114A12884A434FF0E023DE
:1005F0005A6100229A611A46126942F001021A6198
:1006000000BF4FF0E022106900F001021AB100F4BF
:100610008032002AF5D04FF0E022126922F0010268
:100620004FF0E0231A6100229A6170470200002017
:100630000146114A12784A434FF0E0235A610022E2
:100640009A611A46126942F001021A6100BF4FF026
:10065000E022106900F001021AB100F48032002A91
:10066000F5D04FF0E022126922F001024FF0E023B2
:100670001A6100229A6170470000002010B50446FC
:10068000012C04D101020548FFF7ACFE04E04FF451
:1006900000710248FFF7A6FE10BD000000140140E3
:1006A00010B580210148FFF79FFE10BD00180140E2
:1006B00010B580210148FFF795FE10BD00140140E0
:1006C00010B50446012C04D101020548FFF78CFE49
:1006D00004E04FF400710248FFF786FE10BD0000F1
:1006E0000014014010B501210148FFF77BFE10BD49
:1006F0000014014010B501210148FFF775FE10BD3F
:100700000014014010B580210148FFF76BFE10BDB9
:100710000018014010B502210148FFF765FE10BD29
:100720000014014010B502210148FFF75BFE10BD27
:10073000001401400146012903D0022901D0002004
:1007400070470120FCE770B5002500BF1DE00021C7
:10075000284600F0C7F8002405E00121002000F041
:100760006FF9601CC4B2402CF7DB4021284600F032
:10077000B9F8002405E00221002000F061F9601CB6
:10078000C4B2402CF7DB681CC5B2082DDFDB70BD9E
:1007900070B505460026002400BF1DE0002130464C
:1007A00000F0A0F8002413E0402C03D1214630468D
:1007B00000F098F8402C04DA2878012100F040F984
:1007C00003E02878022100F03BF96D1C601CC4B2E4
:1007D000802CE9DB701CC6B2082EDFDB70BD000088
:1007E00010B501216020FFF713FE80212348FFF799
:1007F000FFFD4FF480612148FFF7FAFD802120487A
:10080000FFF7F6FD4FF480711C48FFF7F1FD4FF440
:1008100000711A48FFF7ECFD02211848FFF7E8FDC8
:1008200001211648FFF7E4FD4FF480711448FFF7EB
:10083000DFFD4FF400711248FFF7DAFD4FF48061DD
:100840000F48FFF7D5FD4FF400610D48FFF7D0FDCD
:100850004FF480510A48FFF7CBFD4FF40051084890
:10086000FFF7C6FD4FF480410548FFF7C1FD4FF487
:1008700000410348FFF7BCFD10BD0000001401401B
:100880000018014010B5FFF7ABFFFFF711FF4FF461
:1008900080611348FFF7A6FD6420FFF7A3FE4FF425
:1008A00080610F48FFF7A0FD0120FFF79BFEFFF7D7
:1008B00029FF0120FFF7BCFE0121C02000F08EF8C7
:1008C00001213F2000F08AF80221C02000F086F8C4
:1008D00002213F2000F082F8FFF735FF10BD000035
:1008E0000014014070B506460C46402C01DB022581
:1008F00000E001252946C02000F070F804F03F0117
:1009000001F14000294600F069F806F00701B8310E
:10091000C8B2294600F062F870BD2DE9F0410546E5
:100920000C4616461F464FF000086806050EE00606
:10093000040E15E04046411C01F0FF08325C2146E0
:10094000284600F015F804F10800C4B2E11704EBE2
:100950005161C911A4EBC11111B9A81CC5B2002481
:10096000381EA7F10101CFB2E4D1BDE8F08100004B
:100970002DE9F047804689461546A5F12000C5B20D
:10098000002624E008EB0601C8B24946FFF7AAFF9B
:10099000F006070E002416E009EB0400402808DBEF
:1009A0000D4901EB0511E219885C022100F048F8BD
:1009B00007E0094901EB0511E219885C012100F00B
:1009C0003FF8601CC4B2082CE6DB701CC6B2022ED5
:1009D000D8DBBDE8F08700000408002070B50546AC
:1009E0000E463046FFF7A6FE00B970BDFFF792FE37
:1009F00000F064F8FFF776FE3046FFF761FEFFF780
:100A000091FE0E48FFF7EAFC0446E4B244EA0524EE
:100A100021460A48FFF7EAFCFFF742FE0120FFF7F4
:100A200007FEFFF76FFE0120FFF702FEFFF772FEE1
:100A30003046FFF723FE00BFD7E700000018014053
:100A400070B505460E463046FFF774FE00B970BD1E
:100A5000FFF760FE00F032F8FFF74CFE3046FFF77C
:100A60002FFEFFF75FFE0E48FFF7B8FC0446E4B226
:100A700044EA052421460A48FFF7B8FCFFF710FEB8
:100A80000120FFF7D5FDFFF73DFE0120FFF7D0FD68
:100A9000FFF740FE3046FFF7F1FD00BFD7E700004B
:100AA0000018014010B5FFF77BFDFFF7EBFE0A20B1
:100AB000FFF798FD00F02EF8002010BD10B54FF4A0
:100AC00080711348FFF794FC4FF400711048FFF752
:100AD0008FFC4FF480610E48FFF78AFC4FF40061F1
:100AE0000B48FFF785FC4FF480510948FFF780FC65
:100AF0004FF400510648FFF77BFC4FF48041044857
:100B0000FFF776FC4FF400410148FFF771FC10BD80
:100B10000018014010B50948FFF73AFE4FF47A700B
:100B2000FFF760FDFFF70FFE0548FFF731FE0F23CB
:100B300004A201210846FFF7F0FE10BD04000020CA
:100B40000404002057656C636F6D6520746F20325C
:100B50003531382E00000000780B0008000000201E
:100B6000080E00006C010008F40F0008080E0020B9
:100B700060060000C801000801FF0112300F403C70
:100B800010FF101020108F7808F808F81702FE9256
:100B900092FE024008101116F01413104FFE0222AC
:100BA0004282720532FE180B100C04841464050690
:100BB000F404011B140C33280FFA8282FE804020BB
:100BC000504C434C502040221F2424A46425260668
:100BD0002B242422011A280F020602FF01010442DD
:100BE00021184681403F5E300F1F0808FF048141F5
:100BF000310D030D3141812FFF100806010E053420
:100C00004E807F1E0484844447572008070C142418
:100C1000448404180F08184884443F404458414E07
:100C2000605847801D40404849011A7F041C4B48CA
:100C3000401101BE1A800159073909190AA9180182
:100C40006027C3E3B098CFC7376FEF8484FC782C5C
:100C500081FFFF7807B277FF8888FF7736625149B6
:100C6000494646274545453944427F4006FF3649B7
:100C700049493601FF01FF01F972F852331C100C8B
:100C80000203A11C40C07803211C043F0403212758
:100C9000708888FC083017182020FF211E37F008C4
:100CA000F08060181D310C031E101911338870106C
:100CB000091E21232C192721100310120E3CE018C5
:100CC000046025071820403D020418E0682C201815
:100CD0000707174080F08040404F0202010F0102D9
:100CE0008839201B0101119301012A9066B1191C5A
:100CF000A91F111A30A4711BC038B83A605F194D92
:100D00001D10080810522F0F102020100FF1531043
:100D1000F81E20203F2020E01A08011AF0401D286C
:100D2000242221441A300F29D23718202121221CD5
:100D30002C804030311008060524243F242427F855
:100D400088888808081E1920202011EC36E01088B9
:100D500088901B0F11111A1F38193F4368183A3E2B
:100D60009E1A702E29504B1C22501AF06029902E8A
:100D700001122222119011CBC0C0C27280192539F4
:100D80000F1C402010701E0102040810B03A4001F0
:100D9000213A02012119152A403219251B04027239
:100DA0004B70487019502A375D1D30C828E87028EC
:100DB00008071827282F2817122A3859280A203CF4
:100DC00023020227382008D0192F4B203FD01BC008
:100DD00030A01B083830191019784B08F8B03920AA
:100DE0001B100F103E8888E8081010AC2320181044
:100DF000113A0370393F39402C221E024019A418C1
:100E000009F808203F21010121252A0852298129BA
:100E1000424149112EC08080807F0E2FF888C02863
:100E20001808501C0126382F2940292F29801B2003
:100E3000301012F81AF8142E203F013E014F4CF8E2
:100E400030C0601A2074123F4BE010B06B0F10B02E
:100E500029D01AF0301980220189203E28283050EC
:100E60004FC04C888870C0140C30204B7088C1175C
:100E700038202121221C3A189F4A188239A049D0D3
:100E8000112A1F90121F240878881BC838151C07C8
:100E9000380E601A089F1129241E033E013E0310DC
:100EA00048131868808068180820302C03032C3001
:100EB000200838C82F5950298F29102F2038262173
:100EC0002020681145FE020202257F404040740444
:100ED00038C02B01060B191D42FE191D527F051249
:100EE000040202045A80011930D91E2915311D1936
:100EF000242412821B10F011418F3F112020110E6B
:100F0000211A0E104B20110F2390F029F02A10B354
:100F1000395619101A24012A170F1CE09090171A3D
:100F200020D029D1497A214F6B9494949360601911
:100F30000F4C203F21F354809898793059121AC0F1
:100F40002719D1193039311F203F2406293021AC0F
:100F50001010F83069D7294B2903190BC96079A003
:100F600019B02B201FDD390F8C80FF91E011191271
:100F700029E03B91FF2D3950194112208A01C02AE6
:100F800033E03A19E0394139525A104D19052960B8
:100F90006C103F2040114E030C300C035D290338C8
:100FA00009010E300C073806011D39A14E310E2EF5
:100FB00031202C29051D818678181F59D1216721E0
:100FC000302C22213044FC020245013E404072FF99
:100FD0002908540202FC2C40403EAD19113D01028B
:100FE00002042F6184A24A040009000102030406DE
:040FF00007080900E5
:0400000508000131BD
:00000001FF
