:020000040800F2
:10000000A0080020D5010008DD010008DF0100087C
:10001000E1010008E3010008E5010008000000001C
:10002000000000000000000000000000E7010008E0
:10003000E901000800000000EB010008ED010008E4
:10004000EF010008EF010008EF010008EF010008D0
:10005000EF010008EF010008EF010008EF010008C0
:10006000EF010008EF010008EF010008EF010008B0
:10007000EF010008EF010008EF010008EF010008A0
:10008000EF010008EF010008EF010008EF01000890
:10009000EF010008EF010008EF010008EF01000880
:1000A000EF010008EF010008EF010008EF01000870
:1000B000EF010008EF010008EF010008EF01000860
:1000C000EF010008EF010008EF010008EF01000850
:1000D000EF010008B5090008EF010008EF01000872
:1000E000EF010008EF010008EF010008EF01000830
:1000F000EF010008EF010008EF010008EF01000820
:10010000EF010008EF010008EF010008EF0100080F
:10011000EF010008EF010008EF010008EF010008FF
:10012000EF010008EF010008EF010008EF010008EF
:1001300000F002F800F03FF80AA090E8000C8244BA
:100140008344AAF10107DA4501D100F034F8AFF297
:10015000090EBAE80F0013F0010F18BFFB1A43F0A5
:1001600001031847400C0000600C0000103A24BF47
:1001700078C878C1FAD8520724BF30C830C144BF0C
:1001800004680C607047000000230024002500264E
:10019000103A28BF78C1FBD8520728BF30C148BFEA
:1001A0000B607047732900F03781002070471FB53E
:1001B0001FBD10B510BD00F049F91146FFF7F7FF5C
:1001C00000F0AAFD00F067F903B4FFF7F2FF03BCEB
:1001D00000F049FD0948804709480047FEE7FEE76F
:1001E000FEE7FEE7FEE7FEE7FEE7FEE7FEE7FEE7E7
:1001F00004480549054A064B7047000055090008A8
:1002000031010008A0020020A0080020A004002066
:10021000A0040020704700000FB4044910B503AAE1
:10022000029800F0FDF810BC5DF814FB08000020F7
:1002300070B50C460546012A05D02878800600D501
:10024000EA69002302E0012305E05B1C934202D22D
:10025000E05C0028F9D1A869E618C01AA861286AEC
:10026000184428622846AFF3008004E0D5E9012154
:1002700014F8010B9047B442F8D32846AFF300803E
:1002800070BD00002DE9F05F894604464FF0000A7A
:10029000DFF824B1FB44C0F820A02046E16888477D
:1002A00000287DD0252806D0D4E901219047206A76
:1002B000401C2062F1E700255F462046E168884740
:1002C0002028064607DB312E05D2B81910F8200C7D
:1002D00008B10543F1E7A80701D525F00405C4F8E6
:1002E0001CA00027C4F818A02A2E09D0304600F020
:1002F000B3FC38B304EB8708303EC8F8186019E047
:1003000059F8041B204604EB87029161E168884795
:10031000012F064618D1E069002820DA25F02005D3
:100320001DE0D8F8180000EB800006EB40003038E4
:10033000C8F818002046E1688847064600F08CFCA3
:100340000028EED1012F0AD02E2E08D12046E168D8
:1003500088477F1C0646022F45F02005C4DBA069B4
:10036000002803DA404245F00105A061E80701D00A
:1003700025F01005A6B1A6F14100192802D82036B3
:1003800045F400654A463146204625604D46FFF754
:1003900009FF60B1012807D0ED1D25F0070000E03E
:1003A00007E000F1080978E705F1040975E7304630
:1003B0007AE7206ABDE8F09FF80A000070477047AE
:1003C0007047704701694A1C02610878704700B5A0
:1003D0008FB0CDE901310021059105497944CDE97E
:1003E000031011466846FFF74DFF0FB000BD000037
:1003F000E5FFFFFF10B5436913B1AFF3008001E0E3
:10040000FFF716FF012010BD127800F124010A70D9
:1004100000224A700122EDE711684FF0FF32E9E750
:10042000074B70B50D467B44FFF7D1FF04462846C5
:1004300000F008F810B14FF0FF3070BD204670BDDD
:10044000D3080000007B00F080007047754600F084
:100450002BF8AE4605006946534620F00700854656
:1004600018B020B5FFF7C4FEBDE820404FF00006ED
:100470004FF000074FF000084FF0000B21F007018C
:10048000AC46ACE8C009ACE8C009ACE8C009ACE8CF
:10049000C0098D46704710B50446AFF30080204672
:1004A000BDE81040FFF790BE0048704740020020B2
:1004B00000B502460B46104600F031F810B14FF47B
:1004C000007000BDB2F80002C0F308001354B2F887
:1004D0000002401CA2F80002B2F80002C0F30800BB
:1004E000B2F80212C1F30801884202D1012082F859
:1004F0000402B2F80002C0F30800E2E70021A0F80D
:100500000212A0F8001270470146B1F80002B1F8DB
:100510000222904201D1012070470020FCE70146F1
:1005200091F80402704710B503460C461846FFF7D1
:10053000EBFF10B14FF4007010BD1846FFF7EFFF4E
:1005400010B1002083F80402B3F80202C0F30800DF
:10055000185C2070B3F80202401CA3F80202B3F842
:100560000202C0F30800E7E7F8B506460C4600258E
:100570000020009000271CE09DF80070694630467E
:10058000FFF7D1FFB0F5007F02D14FF40070F8BD46
:100590000D2F08D19DF800000A2804D10021681E03
:1005A00021542846F3E79DF800202846691C8DB2A7
:1005B0002254E1E72DE9F041024600250026002003
:1005C00000230024002791F803C00CF00F0591F8D8
:1005D00003C00CF0100CBCF1000F03D091F802C066
:1005E0004CEA050591F800C0BCF1000F31D0146849
:1005F00000202BE04FF0010C0CFA00F3B1F800C022
:100600000CEA03069E4220D183004FF00F0C0CFA37
:1006100003F7BC4305FA03FC4CEA040491F803C059
:10062000BCF1280F06D14FF0010C0CFA00FCC2F807
:1006300014C00AE091F803C0BCF1480F05D14FF097
:10064000010C0CFA00FCC2F810C0401C0828D1D3E1
:100650001460B1F800C0BCF1FF0F34DD5468002015
:100660002EE000F1080C4FF0010808FA0CF3B1F885
:1006700000C00CEA03069E4221D183004FF00F0C0C
:100680000CFA03F7BC4305FA03FC4CEA040491F8A6
:1006900003C0BCF1280F05D100F1080C08FA0CF8D2
:1006A000C2F8148091F803C0BCF1480F07D100F1E3
:1006B000080C4FF0010808FA0CF8C2F81080401C32
:1006C0000828CED35460BDE8F081000070B5002149
:1006D00000230F22C47804B3154C246804F4E064AA
:1006E000C4F5E064210AC1F10403CA40447804FA65
:1006F00003F184781440214309010E4C0678A1557A
:10070000047804F01F050124AC4005786D11AD009C
:1007100005F1E025C5F8004109E0047804F01F0563
:100720000124AC40044D0678761145F8264070BD92
:100730000CED00E000E400E080E100E0024901434C
:10074000024A1160704700000000FA050CED00E05D
:1007500029B1064A92690243044B9A6104E0034AB4
:1007600092698243014B9A61704700000010024079
:1007700030B500210022002400232D4D6D6805F0C6
:100780000C0121B1042905D0082923D105E0294D08
:10079000056022E0274D05601FE0254D6D6805F4DA
:1007A0007012234D6D6805F48034022505EB9242EA
:1007B0001CB9214D554305600BE01D4D6D6805F4D6
:1007C00000351DB11C4D5543056002E0194D5543E0
:1007D000056002E0174D056000BF00BF144D6D6855
:1007E00005F0F0010909154D6B5C0568DD404560B9
:1007F0000F4D6D6805F4E061090A104D6B5C4568AA
:10080000DD4085600A4D6D6805F46051C90A0B4DE5
:100810006B5C4568DD40C560054D6D6805F4404181
:10082000890B074D6B5CC568B5FBF3F5056130BD01
:100830000010024000127A0000093D000E00002066
:100840001E00002010B500F001F810BD0CB500200E
:10085000019000903348006840F4803031490860CE
:1008600000BF3048006800F4003000900198401C40
:100870000190009818B90198B0F5A06FF1D12948FE
:10088000006800F4003010B10120009001E0002069
:1008900000900098012843D12348006840F01000E0
:1008A000214908600846006820F0030008600846F7
:1008B000006840F0020008601A4840681949486022
:1008C0000846406848600846406840F480604860D8
:1008D0000846406820F47C1048600846406840F4B0
:1008E000E81048600846006840F08070086000BF6B
:1008F0000C48006800F000700028F9D009484068F2
:1009000020F00300074948600846406840F00200B4
:10091000486000BF0348406800F00C000828F9D187
:100920000CBD00000010024000200240042808D145
:100930004FF0E021096941F004014FF0E02211611C
:1009400007E04FF0E021096921F004014FF0E022B7
:100950001161704710B51348006840F0010011495B
:10096000086008464068104908400E49486008463B
:1009700000680E4908400B4908600846006820F4EA
:10098000802008600846406820F4FE0048604FF46C
:100990001F008860FFF756FF4FF0006004490860B1
:1009A00010BD0000001002400000FFF8FFFFF6FE3F
:1009B00008ED00E010B540F22551114800F036F87E
:1009C000E0B110480078104908700D4800F0EAF8CE
:1009D0000C490870084601780C48FFF769FD0A4881
:1009E00000780D2807D1074800780A2803D1002095
:1009F0000749087002E001200549087010BD000099
:100A0000003801400D0000200C00002038000020BC
:100A10000400002021B1828942F40052828104E066
:100A200082894DF6FF731A408281704770B5024685
:100A3000002400230025002040F66A16B14200D1B0
:100A400000BFC1F3421501F01F03012606FA03F3AC
:100A5000012D02D19689334006E0022D02D1168A7B
:100A6000334001E0968A33400C12012606FA04F462
:100A70001688344013B10CB1012000E0002070BD95
:100A8000F0B50346002400260025002040F66A1732
:100A9000B94200D100BF1846C1F3421401F01F064D
:100AA000012707FA06F5012C01D10C3004E0022CD5
:100AB00001D1103000E014301AB107682F430760ED
:100AC00002E00768AF430760F0BD00002DE9F04782
:100AD00086B005460E460024A24600BFA146002768
:100AE000B08900B100BF2F462C8A4CF6FF7004403D
:100AF000F08804432C82AC894EF6F3100440B08891
:100B000031890843718908430443AC81AC8A4FF6AC
:100B1000FF400440B0890443AC8201A8FFF728FEDF
:100B20001F48874202D1DDF810A001E0DDF80CA0DB
:100B3000A88900F4004040B10AEBCA0000EB0A109B
:100B400031684900B0FBF1F807E00AEBCA0000EB9E
:100B50000A1031688900B0FBF1F86420B8FBF0F0AE
:100B600004012009642101FB1089A88900F40040D8
:100B700040B1322000EBC900B0FBF1F000F00700FB
:100B8000044308E0322000EB09106421B0FBF1F0CF
:100B900000F00F0004432C8106B0BDE8F087000090
:100BA0000038014001468888C0F308007047000003
:100BB00010B586B00446012144F20400FFF7C8FDD9
:100BC00018208DF817004FF40070ADF814000320C2
:100BD0008DF8160005A91D48FFF7ECFC04208DF8E0
:100BE00017000002ADF8140005A91848FFF7E2FC51
:100BF00025208DF8100002208DF811008DF81200CC
:100C000001208DF8130004A8FFF760FD00940C206C
:100C1000ADF80A000020ADF80600ADF80400ADF80C
:100C20000800ADF80C0069460948FFF74FFF0122A4
:100C300040F225510648FFF723FF0648FFF75EFC08
:100C400001210348FFF7E6FE06B010BD0008014091
:100C5000003801403800002030380A2801D2012035
:100C600070470020704700BF7047000010B56FF05C
:100C70000400FFF75BFE0A4800680A49B0FBF1F088
:100C8000094908700846007800EB4001C1EBC0102C
:100C90004FF6FF7101EAC0000449088010BD000052
:100CA0002400002000127A00000000200200002032
:100CB0000146114A12884A434FF0E0235A6100224C
:100CC0009A611A46126942F001021A6100BF4FF0A0
:100CD000E022106900F001021AB100F48032002A0B
:100CE000F5D04FF0E022126922F001024FF0E0232C
:100CF0001A6100229A6170470200002000BF054A75
:100D0000128802F04002002AF9D0C2B2014B1B1D2A
:100D10001A8070470038014086B04FF4A060FFF79A
:100D20000DFD4FF4E130FFF743FFFFF79FFF1DE09C
:100D30000F48FFF7E9FBA8B90E48007890B901A960
:100D40000B48FFF711FCB0F5007F04D001A90AA001
:100D5000FFF762FA06E00AA0FFF75EFA4FF4FA70B6
:100D6000FFF7A6FF4FF47A70FFF7A2FFE0E700005D
:100D7000380000200400002025730D0A0000000048
:100D800072756E6E696E672E2E2E0D0A00000000C1
:100D90000400000800000000000000020001000044
:100DA00010000000C40D0008000000203800000002
:100DB0006C010008FC0D00083800002068080000E5
:100DC0008801000800000000000000000000000092
:100DD00000000000000001020304010203040607F2
:100DE000080902040608000000A24A0400000000EE
:0C0DF000000000000102030406070809CF
:0400000508000131BD
:00000001FF
