:020000040800F2
:1000000080060020CD010008D5010008D7010008B6
:10001000D9010008DB010008DD0100080000000034
:10002000000000000000000000000000DF010008E8
:10003000E101000800000000E3010008E5010008FC
:10004000E7010008E7010008E7010008E7010008F0
:10005000E7010008E7010008E7010008E7010008E0
:10006000E7010008E7010008E7010008E7010008D0
:10007000E7010008E7010008E7010008E7010008C0
:10008000E7010008E7010008E7010008E7010008B0
:10009000E7010008E7010008E7010008E7010008A0
:1000A000E7010008E7010008E7010008E701000890
:1000B000E7010008E7010008E7010008E701000880
:1000C000E7010008E7010008E7010008E701000870
:1000D000E7010008E7010008E7010008E701000860
:1000E000E7010008E7010008E7010008E701000850
:1000F000E7010008E7010008E7010008E701000840
:10010000E7010008E7010008E7010008E70100082F
:10011000E7010008E7010008E7010008E70100081F
:10012000E7010008E7010008E7010008E70100080F
:1001300000F002F800F03AF80AA090E8000C8244BF
:100140008344AAF10107DA4501D100F02FF8AFF29C
:10015000090EBAE80F0013F0010F18BFFB1A43F0A5
:10016000010318474406000064060000103A24BF4B
:1001700078C878C1FAD8520724BF30C830C144BF0C
:1001800004680C607047000000230024002500264E
:10019000103A28BF78C1FBD8520728BF30C148BFEA
:1001A0000B6070471FB51FBD10B510BD00F031F8D2
:1001B0001146FFF7F7FF00F0DDFA00F04FF803B447
:1001C000FFF7F2FF03BC00F057F800000948804732
:1001D00009480047FEE7FEE7FEE7FEE7FEE7FEE729
:1001E000FEE7FEE7FEE7FEE704480549054A064B41
:1001F00070470000850600083101000880000020DB
:100200008006002080020020800200207047704796
:100210007047754600F02CF8AE4605006946534617
:1002200020F00700854618B020B5FFF7DDFFBDE8D8
:1002300020404FF000064FF000074FF000084FF04D
:10024000000B21F00701AC46ACE8C009ACE8C009DE
:10025000ACE8C009ACE8C0098D46704710B504464B
:10026000AFF300802046BDE81040FFF7A8BF0000B4
:10027000004870471C00002001491820ABBEFEE773
:10028000260002007047000008B50121042000F09C
:100290003BF910208DF803000001ADF800000220AA
:1002A0008DF802006946044800F02FF84FF4807181
:1002B000014800F0C0F808BD0008014010B5044630
:1002C000204600F031FA4FF48071064800F0B3F890
:1002D000204600F029FA4FF48071024800F0A9F896
:1002E00010BD00000008014070B50446002504E080
:1002F000C820FFF7E3FF05F5C87504EB4400C0EB29
:10030000C410B5EBC00FF3D370BD2DE9F041024628
:1003100000250026002000230024002791F803C0B8
:100320000CF00F0591F803C00CF0100CBCF1000F9D
:1003300003D091F802C04CEA050591F800C0BCF169
:10034000000F31D0146800202BE04FF0010C0CFAA4
:1003500000F3B1F800C00CEA03069E4220D18300EE
:100360004FF00F0C0CFA03F7BC4305FA03FC4CEA00
:10037000040491F803C0BCF1280F06D14FF0010C22
:100380000CFA00FCC2F814C00AE091F803C0BCF1FA
:10039000480F05D14FF0010C0CFA00FCC2F810C058
:1003A000401C0828D1D31460B1F800C0BCF1FF0F85
:1003B00034DD546800202EE000F1080C4FF00108F5
:1003C00008FA0CF3B1F800C00CEA03069E4221D1F2
:1003D00083004FF00F0C0CFA03F7BC4305FA03FC43
:1003E0004CEA040491F803C0BCF1280F05D100F1D8
:1003F000080C08FA0CF8C2F8148091F803C0BCF19C
:10040000480F07D100F1080C4FF0010808FA0CF86A
:10041000C2F81080401C0828CED35460BDE8F0819B
:100420000246002093680B400BB1012000E0002041
:1004300070474161704701617047000010B54FF48B
:1004400000510248FFF7ECFF10BD00000010014012
:1004500010B54FF400510248FFF7E2FF10BD000055
:100460000014014008B50121302000F04DF848206B
:100470008DF803004FF40050ADF8000069460648BF
:10048000FFF743FF4FF40050ADF800006946034802
:10049000FFF73BFF08BD00000010014000140140C1
:1004A00010B5FFF7CBFF08B9012405E0FFF7D0FF37
:1004B00008B9022400E000241148007820B1012886
:1004C00009D0022819D113E024B101200C49087089
:1004D0000C48047011E00B480078844204D10220DB
:1004E00007490870204610BD00200549087004E047
:1004F00014B900200249087000BF00BF0020F2E7D5
:10050000050000200600002029B1064A9269024336
:10051000044B9A6104E0034A92698243014B9A6159
:10052000704700000010024008B501210820FFF7C5
:10053000EBFF10208DF803002020ADF80000022012
:100540008DF8020069460448FFF7DFFE20210248CB
:10055000FFF76FFF08BD0000000C01400448006871
:1005600008B9012000E00020014908607047000040
:100570009481214210B500F001F810BD0CB50020A7
:10058000019000903348006840F4803031490860A1
:1005900000BF3048006800F4003000900198401C13
:1005A0000190009818B90198B0F5A06FF1D12948D1
:1005B000006800F4003010B10120009001E000203C
:1005C00000900098012843D12348006840F01000B3
:1005D000214908600846006820F0030008600846CA
:1005E000006840F0020008601A48406819494860F5
:1005F0000846406848600846406840F480604860AB
:100600000846406820F47C1048600846406840F482
:10061000E81048600846006840F08070086000BF3D
:100620000C48006800F000700028F9D009484068C4
:1006300020F00300074948600846406840F0020087
:10064000486000BF0348406800F00C000828F9D15A
:100650000CBD00000010024000200240042808D118
:100660004FF0E021096941F004014FF0E0221161EF
:1006700007E04FF0E021096921F004014FF0E0228A
:100680001161704710B51348006840F0010011492E
:10069000086008464068104908400E49486008460E
:1006A00000680E4908400B4908600846006820F4BD
:1006B000802008600846406820F4FE0048604FF43F
:1006C0001F008860FFF756FF4FF000600449086084
:1006D00010BD0000001002400000FFF8FFFFF6FE12
:1006E00008ED00E010B56FF00400FFF7B7FF0A480F
:1006F00000680A49B0FBF1F0094908700846007823
:1007000000EB4001C1EBC0104FF6FF7101EAC000E1
:100710000449088010BD00000800002000127A0083
:1007200000000020020000200146114A12784A43CE
:100730004FF0E0235A6100229A611A46126942F092
:1007400001021A6100BF4FF0E022106900F00102BF
:100750001AB100F48032002AF5D04FF0E02212697D
:1007600022F001024FF0E0231A6100229A617047E3
:1007700000000020FFF7B6FFFFF774FEFFF7D4FE7E
:10078000FFF782FDC820FFF7AFFD0BE0FFF788FE03
:100790000446012C02D1C820FFF7A6FD022C01D18E
:1007A000FFF7DCFEF2E70000C807000800000020A9
:1007B0001C0000006C010008E40700081C00002079
:1007C000640600008801000800000000010000002D
:1007D00000A24A040000000000000000010203041F
:0407E00006070809F7
:0400000508000131BD
:00000001FF
