:020000040800F2
:10000000A0080020D5010008DD010008DF0100087C
:10001000E1010008E3010008E5010008000000001C
:10002000000000000000000000000000E7010008E0
:10003000E901000800000000EB010008ED010008E4
:10004000EF010008EF010008EF010008EF010008D0
:10005000EF010008EF010008EF010008EF010008C0
:10006000EF010008EF010008EF010008EF010008B0
:10007000EF010008EF010008EF010008EF010008A0
:10008000EF010008EF010008EF010008EF01000890
:10009000EF010008EF010008EF010008EF01000880
:1000A000EF010008EF010008EF010008EF01000870
:1000B000EF010008EF010008EF010008EF01000860
:1000C000EF010008EF010008EF010008EF01000850
:1000D000EF01000835110008EF010008EF010008EA
:1000E000EF010008EF010008EF010008EF01000830
:1000F000EF010008EF010008EF010008EF01000820
:10010000EF010008EF010008EF010008EF0100080F
:10011000EF010008EF010008EF010008EF010008FF
:10012000EF010008EF010008EF010008EF010008EF
:1001300000F002F800F03FF80AA090E8000C8244BA
:100140008344AAF10107DA4501D100F034F8AFF297
:10015000090EBAE80F0013F0010F18BFFB1A43F0A5
:1001600001031847B4130000D4130000103A24BF51
:1001700078C878C1FAD8520724BF30C830C144BF0C
:1001800004680C607047000000230024002500264E
:10019000103A28BF78C1FBD8520728BF30C148BFEA
:1001A0000B607047782900F04380002070471FB52E
:1001B0001FBD10B510BD00F0BBF91146FFF7F7FFEA
:1001C00001F06AF900F0D9F903B4FFF7F2FF03BCBC
:1001D00001F009F90948804709480047FEE7FEE7B2
:1001E000FEE7FEE7FEE7FEE7FEE7FEE7FEE7FEE7E7
:1001F00004480549054A064B70470000B10F000846
:1002000031010008A0020020A0080020A004002066
:10021000A0040020704700000FB4044910B503AAE1
:10022000029800F06FF910BC5DF814FB0800002084
:1002300070B504460D4621461068AFF30080218852
:10024000090502D50F4A7A4402E00E4A7A440E327A
:10025000002104F1240305E000F00F060009965D7B
:100260005E54491C0028F7D120780023000704D5EC
:10027000702D02D009B1022311322046BDE8704032
:1002800000F0CEB8921200002DE9F05F89460446D6
:100290004FF0000ADFF824B1FB44C0F820A020464C
:1002A000E168884700287DD0252806D0D4E90121BF
:1002B0009047206A401C2062F1E700255F462046F7
:1002C000E16888472028064607DB312E05D2B81999
:1002D00010F8200C08B10543F1E7A80701D525F077
:1002E0000405C4F81CA00027C4F818A02A2E09D0C1
:1002F000304601F071F838B304EB8708303EC8F897
:10030000186019E059F8041B204604EB870291613C
:10031000E1688847012F064618D1E069002820DAF5
:1003200025F020051DE0D8F8180000EB800006EB52
:1003300040003038C8F818002046E1688847064673
:1003400001F04AF80028EED1012F0AD02E2E08D154
:100350002046E16888477F1C0646022F45F02005AD
:10036000C4DBA069002803DA404245F00105A06122
:10037000E80701D025F01005A6B1A6F14100192823
:1003800002D8203645F400654A46314620462560AD
:100390004D46FFF707FF60B1012807D0ED1D25F09E
:1003A000070000E007E000F1080978E705F104091B
:1003B00075E730467AE7206ABDE8F09F68120000D2
:1003C00040EA010310B59B070FD1042A0DD310C8D2
:1003D00008C9121F9C42F8D020BA19BA884201D924
:1003E000012010BD4FF0FF3010BD1AB1D30703D06C
:1003F000521C07E0002010BD10F8013B11F8014B22
:100400001B1B07D110F8013B11F8014B1B1B01D13D
:10041000921EF1D1184610BD704770477047704763
:100420002DE9F0470D4699469246044600F124080E
:100430000168880604D5E06921F01001216000E020
:100440000120A84201DD471B00E00027A1697A19BD
:1004500002EB0900081AA0612078C00602D42046E9
:10046000AFF30080002608E0D4E901211AF8060065
:100470009047206A401C761C20624E45F4DB2078B1
:10048000C0060AD52046AFF3008006E0D4E901217A
:1004900030209047206A401C2062381EA7F10107D7
:1004A000F4DC07E0D4E9012118F805009047206A40
:1004B000401C2062281EA5F10105F3DC2046AFF3A5
:1004C00000802078000602D50220BDE8F0870120D8
:1004D000FBE7000001694A1C02610878704700B51B
:1004E0008FB0CDE901310021059105497944CDE96D
:1004F000031011466846FFF7C7FE0FB000BD0000AD
:10050000E5FFFFFF074B70B50D467B44FFF7E7FFA4
:100510000446284600F008F810B14FF0FF3070BDD7
:10052000204670BD6F0F0000007B00F08000704718
:10053000754600F02BF8AE4605006946534620F09C
:100540000700854618B020B5FFF752FEBDE82040F1
:100550004FF000064FF000074FF000084FF0000B7F
:1005600021F00701AC46ACE8C009ACE8C009ACE832
:10057000C009ACE8C0098D46704710B50446AFF31A
:1005800000802046BDE81040FFF71EBE00487047BF
:10059000400200202DE9F0410646002527E000201A
:1005A0004C4908704FF4E15400E0641E20214A4891
:1005B00000F055F908B9002CF7D114B90120BDE8B5
:1005C000F0810021454800F060FD08E0434800F05C
:1005D00059FD4CF2E041884201DB322505E0202143
:1005E0003D4800F03CF90128F0D000BF6D1C322DD1
:1005F000D5D34FF4E15400E0641E2021364800F0CA
:100600002EF9012801D1002CF6D10CB90120D6E732
:10061000334C00E0641E20212F4800F020F908B977
:10062000002CF7D10CB90120C9E740F28A284046D6
:1006300000F0EEFC4FF4AF78002546E000273BE0E9
:100640002021254800F00BF901281AD14FF4E1547C
:1006500000E0641E2021204800F001F9012801D1AA
:10066000002CF6D10CB90120A9E71A480078400601
:10067000000E184908700846007840F00100087024
:1006800016E04FF4E15400E0641E2021124800F00F
:10069000E6F808B9002CF7D10CB901208FE70D4816
:1006A00000784006000E0B49087008460078087074
:1006B000404600F0ADFC7F1C082FC1D305480078F0
:1006C00070550020034908706D1C082DB6D300201A
:1006D00075E700000E0000200018014000100040E7
:1006E0004019010000B502460B46104600F028F8FC
:1006F00010B14FF4007000BDB2F80002C0F3080062
:100700001354B2F80002401CA2F80002B2F8000232
:10071000C0F30800B2F80212C1F30801884202D106
:10072000012082F80402B2F80002C0F30800E2E7F8
:100730000021A0F80212A0F8001280F804127047FD
:10074000014691F8040270472DE9F0410246002568
:100750000026002000230024002791F803C00CF09D
:100760000F0591F803C00CF0100CBCF1000F03D082
:1007700091F802C04CEA050591F800C0BCF1000FE9
:1007800031D0146800202BE04FF0010C0CFA00F37C
:10079000B1F800C00CEA03069E4220D183004FF05E
:1007A0000F0C0CFA03F7BC4305FA03FC4CEA0404F3
:1007B00091F803C0BCF1280F06D14FF0010C0CFAE0
:1007C00000FCC2F814C00AE091F803C0BCF1480F65
:1007D00005D14FF0010C0CFA00FCC2F810C0401C0F
:1007E0000828D1D31460B1F800C0BCF1FF0F34DD8C
:1007F000546800202EE000F1080C4FF0010808FAC0
:100800000CF3B1F800C00CEA03069E4221D183002C
:100810004FF00F0C0CFA03F7BC4305FA03FC4CEA4B
:10082000040491F803C0BCF1280F05D100F1080CB5
:1008300008FA0CF8C2F8148091F803C0BCF1480F14
:1008400007D100F1080C4FF0010808FA0CF8C2F8C3
:100850001080401C0828CED35460BDE8F0810246C9
:10086000002093680B400BB1012000E0002070478E
:100870000AB1016100E04161704700002DE9F047D5
:1008800005460E464FF000084FF0060903E04FF40E
:10089000617000F0BDFBB9F10000A9F1010101F0A8
:1008A000FF09F4D1002210212948FFF7E1FF4FF49E
:1008B000C07000F0ADFB002432E000272BE0285D83
:1008C00000F0800040B9012210212148FFF7D0FF3D
:1008D000C02000F09DFB08E0012210211C48FFF71A
:1008E000C7FF4FF4E07000F093FB0022102118487E
:1008F000FFF7BEFF802000F08BFB285D4006000E56
:10090000285508F1010000F0FF08B04501D10A2484
:1009100003E0781CC7B2082FD1DB00BF601CC4B253
:100920000A2CCADB012210210948FFF7A1FF4FF072
:10093000160903E04FF4617000F06AFBB9F10000A2
:10094000A9F1010101F0FF09F4D1BDE8F087000031
:100950000018014010B58AB04CA103C9CDE90801C7
:1009600006A800F042F90446DCB94AA0FFF754FC9F
:100970009DF81F009DF81E109DF81D209DF81C304D
:10098000CDE90132CDE903109DF81B0000909DF8E0
:100990001A309DF819209DF8181043A0FFF73CFC71
:1009A0001AE04AA0FFF738FC9DF81F009DF81E10C2
:1009B0009DF81D209DF81C30CDE90132CDE90310D2
:1009C0009DF81B0000909DF81A309DF819209DF8A5
:1009D000181035A0FFF720FC4FF4617000F018FBF1
:1009E00008A9042000F028F9044694B93CA0FFF7B8
:1009F00013FC9DF824009DF82310CDE900109DF80C
:100A000022309DF821209DF8201039A0FFF704FC2A
:100A100011E03CA0FFF700FC9DF824009DF8231096
:100A2000CDE900109DF822309DF821209DF820107E
:100A30002FA0FFF7F1FB4FF4617000F0E9FA06A96F
:100A4000042000F09FF804467CB932A0FFF7E4FBD5
:100A50009DF81B0000909DF81A309DF819209DF814
:100A6000181016A0FFF7D8FB0EE02FA0FFF7D4FB5D
:100A70009DF81B0000909DF81A309DF819209DF8F4
:100A800018100EA0FFF7C8FB0AB010BDC122F40475
:100A9000FF000000BFA8BAC5BBF1C8A1B3C9B9A681
:100AA000A3A10D0A00000000696420636172643A2A
:100AB0002558202558202558202558202558202500
:100AC000582025582025580D0A000000BFA8BAC597
:100AD000BBF1C8A1CAA7B0DCA3A10D0A00000000A9
:100AE000CAFDBEDDD0B4C8EBB3C9B9A6210D0A005A
:100AF00025582025582025582025582025580D0AEE
:100B000000000000CAFDBEDDD0B4C8EBCAA7B0DC4F
:100B1000210D0A00B6C1C8A1D0B4C8EBCAFDBEDD24
:100B2000B3C9B9A6210D0A00B6C1C8A1D0B4C8EB9B
:100B3000CAFDBEDDCAA7B0DC210D0A0008B501213F
:100B4000402000F033F910208DF80300ADF80000CC
:100B500003208DF8020069460948FFF7F5FD48209B
:100B60008DF803002020ADF8000069460448FFF727
:100B7000EBFD012210210248FFF77AFE08BD0000BC
:100B800000180140FEB504460D46002002900A26DA
:100B90009DF8080040F0800002909DF8080040EAAF
:100BA0008400C0B20290062102A8FFF767FE14E09D
:100BB0006846FFF7EFFC2846FFF7ECFC04222946C5
:100BC0006846FFF7FDFB38B10EB90120FEBD4FF4BA
:100BD000FA7000F01DFA00E004E0301EA6F10101F9
:100BE000CEB2E5D100BF0020F0E73EB50446C020FC
:100BF00002900A25022102A8FFF740FE14E0684691
:100C0000FFF7C8FC2046FFF7C5FC082221466846CE
:100C1000FFF7D6FB38B10DB901203EBD4FF4FA7095
:100C200000F0F6F900E004E0281EA5F10101CDB2C4
:100C3000E5D100BF0020F0E72DE9FF4781460E46D1
:100C400000200290039000250427002404E0305D7A
:100C50000DF80400601CC4B2042CF8DB04208DF8ED
:100C600008009DF808004006000E8DF808000024DA
:100C7000A0462AE002A8005D16F8081040EAD1104C
:100C800002A9085502A8005D4006000E085516F896
:100C900008004006000E06F80800681CC5B2781C63
:100CA000C7B2E91705EB5171C910A5EBC10119B91C
:100CB00008F1010000F0FF08F91707EB5171C910A6
:100CC000A7EBC10109B9601CC4B2202DD2DB9DF88D
:100CD0000C00000140EA8900C0B28DF80C0026210A
:100CE00002A8FFF7CBFD31464846FFF74BFF042231
:100CF00031466846FFF764FB18B1012004B0BDE837
:100D0000F0870020FAE7000070B5002100230F22D1
:100D1000C47804B3154C246804F4E064C4F5E064BA
:100D2000210AC1F10403CA40447804FA03F184782B
:100D30001440214309010E4C0678A155047804F0B3
:100D40001F050124AC4005786D11AD0005F1E025CB
:100D5000C5F8004109E0047804F01F050124AC4007
:100D6000044D0678761145F8264070BD0CED00E084
:100D700000E400E080E100E002490143024A116022
:100D8000704700000000FA050CED00E029B1064AAA
:100D9000D2690243044BDA6104E0034AD269824318
:100DA000014BDA61704700000010024029B1064A89
:100DB00092690243044B9A6104E0034A92698243B8
:100DC000014B9A61704700000010024030B50021CD
:100DD0000022002400232D4D6D6805F00C0121B187
:100DE000042905D0082923D105E0294D056022E01A
:100DF000274D05601FE0254D6D6805F47012234DE9
:100E00006D6805F48034022505EB92421CB9214D32
:100E1000554305600BE01D4D6D6805F400351DB1AF
:100E20001C4D5543056002E0194D5543056002E035
:100E3000174D056000BF00BF144D6D6805F0F0014F
:100E40000909154D6B5C0568DD4045600F4D6D6807
:100E500005F4E061090A104D6B5C4568DD40856072
:100E60000A4D6D6805F46051C90A0B4D6B5C45680D
:100E7000DD40C560054D6D6805F44041890B074DA7
:100E80006B5CC568B5FBF3F5056130BD0010024031
:100E900000127A0000093D000F0000201F00002012
:100EA00010B500F001F810BD0CB5002001900090C5
:100EB0003348006840F480303149086000BF304852
:100EC000006800F4003000900198401C01900098E8
:100ED00018B90198B0F5A06FF1D12948006800F465
:100EE000003010B10120009001E000200090009837
:100EF000012843D12348006840F0100021490860D0
:100F00000846006820F0030008600846006840F0CA
:100F1000020008601A48406819494860084640685D
:100F200048600846406840F4806048600846406871
:100F300020F47C1048600846406840F4E81048609F
:100F40000846006840F08070086000BF0C480068E8
:100F500000F000700028F9D00948406820F0030034
:100F6000074948600846406840F00200486000BFFA
:100F70000348406800F00C000828F9D10CBD0000BF
:100F80000010024000200240042808D14FF0E02168
:100F9000096941F004014FF0E022116107E04FF0D0
:100FA000E021096921F004014FF0E022116170474E
:100FB00010B51348006840F0010011490860084668
:100FC0004068104908400E494860084600680E49CC
:100FD00008400B4908600846006820F4802008603B
:100FE0000846406820F4FE0048604FF41F00886007
:100FF000FFF756FF4FF000600449086010BD000085
:10100000001002400000FFF8FFFFF6FE08ED00E0D0
:1010100010B504460021064800F037F800BF044828
:1010200000F030F804EBC401B0EBC10FF7DB10BDEA
:10103000001000400EB501211020FFF7A7FE002090
:10104000ADF80600ADF80200ADF800004FF6FE70F6
:10105000ADF804006946044800F01AF8012102487E
:1010600000F004F80EBD00000010004021B102881D
:1010700042F00102028004E002884FF6FE731A403B
:10108000028070470146888C704781847047000059
:10109000002202881D4B98420ED01D4B98420BD067
:1010A000B0F1804F08D01B4B984205D01A4B9842A4
:1010B00002D01A4B984204D14FF68F731A404B88D6
:1010C0001A43174B984207D0164B984204D04FF65C
:1010D000FF431A40CB881A4302808B8883850B8894
:1010E00003850A4B98420BD0094B984208D00E4B0F
:1010F000984205D00D4B984202D00D4B984201D139
:101100000B7A03860123838270470000002C014084
:10111000003401400004004000080040000C004082
:101120000010004000140040004001400044014015
:101130000048014010B540F22551114800F036F842
:10114000E0B110480078104908700D4800F0EAF846
:101150000C490870084601780C48FFF7C3FA0A48A2
:1011600000780D2807D1074800780A2803D100200D
:101170000749087002E001200549087010BD000011
:10118000003801400D0000200C0000203800002035
:101190000400002021B1828942F40052828104E0DF
:1011A00082894DF6FF731A408281704770B50246FE
:1011B000002400230025002040F66A16B14200D129
:1011C00000BFC1F3421501F01F03012606FA03F325
:1011D000012D02D19689334006E0022D02D1168AF4
:1011E000334001E0968A33400C12012606FA04F4DB
:1011F0001688344013B10CB1012000E0002070BD0E
:10120000F0B50346002400260025002040F66A17AA
:10121000B94200D100BF1846C1F3421401F01F06C5
:10122000012707FA06F5012C01D10C3004E0022C4D
:1012300001D1103000E014301AB107682F43076065
:1012400002E00768AF430760F0BD00002DE9F047FA
:1012500086B005460E460024A24600BFA1460027E0
:10126000B08900B100BF2F462C8A4CF6FF700440B5
:10127000F08804432C82AC894EF6F3100440B08809
:1012800031890843718908430443AC81AC8A4FF625
:10129000FF400440B0890443AC8201A8FFF796FDEB
:1012A0001F48874202D1DDF810A001E0DDF80CA054
:1012B000A88900F4004040B10AEBCA0000EB0A1014
:1012C00031684900B0FBF1F807E00AEBCA0000EB17
:1012D0000A1031688900B0FBF1F86420B8FBF0F027
:1012E00004012009642101FB1089A88900F4004051
:1012F00040B1322000EBC900B0FBF1F000F0070074
:10130000044308E0322000EB09106421B0FBF1F047
:1013100000F00F0004432C8106B0BDE8F087000008
:101320000038014001468888C0F30800704700007B
:1013300010B586B00446012144F20400FFF736FDE3
:1013400018208DF817004FF40070ADF8140003203A
:101350008DF8160005A91D48FFF7F6F904208DF851
:1013600017000002ADF8140005A91848FFF7ECF9C2
:1013700025208DF8100002208DF811008DF8120044
:1013800001208DF8130004A8FFF7BEFC00940C2088
:10139000ADF80A000020ADF80600ADF80400ADF885
:1013A0000800ADF80C0069460948FFF74FFF01221D
:1013B00040F225510648FFF723FF0648FFF7B8F92A
:1013C00001210348FFF7E6FE06B010BD000801400A
:1013D000003801403800002030380A2801D20120AE
:1013E00070470020704700BF7047000010B56FF0D5
:1013F0000400FFF7C9FD0A4800680A49B0FBF1F094
:10140000094908700846007800EB4001C1EBC010A4
:101410004FF6FF7101EAC0000449088010BD0000CA
:101420002400002000127A000000002002000020AA
:101430000146114A12884A434FF0E0235A610022C4
:101440009A611A46126942F001021A6100BF4FF018
:10145000E022106900F001021AB100F48032002A83
:10146000F5D04FF0E022126922F001024FF0E023A4
:101470001A6100229A6170470200002000BF054AED
:10148000128802F04002002AF9D0C2B2014B1B1DA3
:101490001A807047003801404FF4A060FFF76CFCE1
:1014A0004FF4E130FFF744FFFFF7A0FFFFF7C2FD65
:1014B000FFF744FB05A0FEF7AFFE05E040F2DC506D
:1014C000FFF7B6FFFFF746FAF8E7000072756E6E99
:1014D000696E672E2E2E0D0A000000003031323367
:1014E0003435363738394142434445464030580058
:1014F000303132333435363738396162636465668A
:1015000040307800040000080000000000000002E5
:101510000001000010000000381500080000002045
:10152000380000006C010008701500083800002029
:1015300068080000880100080000000000000000AA
:101540000000000000000000000000010203040190
:1015500002030406070809020406080000A24A0460
:101560000000000000000000010203040607080953
:0400000508000131BD
:00000001FF
